:100000000C9405050C942D050C942D050C942D05D0
:100010000C942D050C942D050C942D050C942D0598
:100020000C942D050C942D050C944A1C0C94C81CA2
:100030000C942D050C942D050C942D050C942D0578
:100040000C942D050C9471200C942D050C942D0509
:100050000C942D050C942D050C942D050C94001C6E
:100060000C942D050C94201F0C94FA1E0C942D0555
:100070000C942D050C942D050C942D050C942D0538
:100080000C942D050C942D050C942D050C942D0528
:100090000C94521F0C942D050C942D050C942D05D9
:1000A0000C942D050C942D050C942D0500407A1010
:1000B000F35A00A0724E18090010A5D4E80000E819
:1000C0007648170000E40B54020000CA9A3B000077
:1000D00000E1F505000080969800000040420F0006
:1000E0000000A08601000000102700000000E803C7
:1000F000000000006400000000000A000000000092
:100100000100000000002C76D888DC674F0823DF50
:10011000C1DFAE59E1B1B796E5E3E453C63AE65123
:10012000997696E8E6C28426EB898C9B62ED407C4A
:100130006FFCEFBC9C9F40F2BAA56FA5F490055AE6
:100140002AF75C936B6CF9676DC11BFCE0E40D470B
:10015000FEF520E6B500D0ED902E0300943577052E
:100160000080841E080000204E0A000000C80C33E6
:100170003333330F986E12831141EF8D2114893B75
:10018000E65516CFFEE6DB18D1844B381BF77C1DF5
:10019000901DA4BBE424203284725E228100C9F148
:1001A00024ECA1E53D27AED580A83FD300408D14B7
:1001B0002002A1C8DA12817FD9F1DB40A4A6AF00EA
:1001C000030C0F30333C3FC0C3CCCFF0F3FCFF082F
:1001D0000B000202020000090400000102020000FC
:1001E0000524001001052401010104240206052450
:1001F0000600010705810310004009040100020AFE
:1002000000000007050202400000070583024000CD
:10021000000403090412010002EF020140412336E9
:100220008000010102030141726475696E6F204C08
:100230004C430041726475696E6F204C656F6E614E
:1002400072646F00A60119804000000000002400C5
:1002500027002A002D0030000000000023002600A7
:1002600029002C002F000000000200090F000003ED
:100270000401000C0000000000000000000000006D
:1002800000000000000000070E20600000000000D9
:100290000000000000000000000000FC0000000062
:1002A00000000D00000000003C003C0000000000C9
:1002B000000000000020F82020F8200001070101C4
:1002C0000701006090F89010000004040F04030080
:1002D0000018249860100C000C020106090600307A
:1002E000C8C8300000000708080906090000003CE3
:1002F00000000000000000000000000000E0180402
:1003000002000000030C102000020418E0000000AE
:1003100020100C0300000080A0C0C0A080000002DC
:100320000101020000808080F080808000000007D2
:100330000000000000000000000020180C04000075
:1003400000808080808080000000000000000000AD
:1003500000000000000000081C08000000000080F1
:100360006018060018060100000000F00884440828
:10037000F00003040808040300201008FC0000003B
:100380000000000F000000180404844438000C0A28
:1003900009080808000804444444B800060808088E
:1003A00008070080601804FC0000010101010F0132
:1003B000007C24242424C40006080808080700F848
:1003C000844444448800070808080807000404041B
:1003D000C4340C00000C0300000000B84444444442
:1003E000B800070808080807007884848444F800E7
:1003F000040808080807000020702000000000081A
:100400001C080000000020702000000020180C04D0
:1004100000000080402010080000000102040800D5
:100420000040404040404000020202020202000040
:1004300008102040800000080402010000048444E9
:1004400024180000000D0000000000F008C424245F
:10045000F8000304090A0A0300F884848484F8007D
:100460000F000000000F00FC4444447880000F0897
:100470000808080700F8040404041800070808081E
:10048000080600FC04040408F0000F080808040330
:1004900000FC4444444404000F080808080800FC19
:1004A0004444444404000F000000000000F8040429
:1004B0008484980007080808080700FC4040404072
:1004C000FC000F000000000F000404FC0404000006
:1004D00008080F080800000000040404FC000608D7
:1004E0000808080700FC4020D00804000F000000A6
:1004F000030C00FC0000000000000F0808080808BA
:1005000000FC1860806018FC0F00000100000FFC68
:1005100018608000FC000F000001060F00F80404C2
:100520000404F80007080808080700FC8484848491
:1005300078000F000000000000F804040404F80034
:100540000708080E181700FC8484848478000F00C4
:1005500001020408003844448484080004080808A0
:10056000080700040404FC0404040000000F000059
:1005700000FC00000000FC0007080808080700FC59
:1005800000000000FC0000030C0C030000FC000055
:10059000C00000FC030C0300030C030C30C0C0308F
:1005A0000C000C030000030C003C408080403C0029
:1005B0000000000F00000004048444340C000C0A06
:1005C00009080808000000FE0202020000003F20A7
:1005D00020200006186080000000000000010618BE
:1005E00000020202FE0000002020203F0000001058
:1005F00008040408100000000000000000000000D3
:10060000000000002020202020200000040C1820E2
:1006100000000000000000000000A0A0A0A0C0009A
:1006200007080808040F00FC40202020C0000F0429
:100630000808080700C020202020400007080808FC
:10064000080400C020202040FC0007080808040F10
:1006500000C020202020C0000709090909090080E6
:10066000F88484840800000F0000000000C02020EF
:100670002040E00023444444423F00FC402020202E
:10068000C0000F000000000F00002020EC00000060
:100690000000000F00000000002020EC00001020EF
:1006A00020201F0000FC0080402000000F010102FC
:1006B00004080000FC000000000000070808080013
:1006C00000E02020C02020C00F00000300000FE049
:1006D00040202020C0000F000000000F00C020209C
:1006E0002020C00007080808080700E0402020205C
:1006F000C0007F020404040300C020202040E0006A
:1007000003040404027F00E04020202040000F008A
:100710000000000000C0202020204000040909093A
:1007200009060020F820202000000007080808041F
:1007300000E000000000E00007080808040F00E0E7
:1007400000000000E00000030C0C030000E00000CB
:10075000800000E007080403040807204080804070
:10076000200008040202040800E000000000E0008D
:1007700023444444423F0020202020A06000080C75
:100780000A090808000080807C0202000000001FA7
:100790002020000000FE0000000000001F000000FC
:1007A0000002027C8080000020201F00000000303A
:1007B00008081020201800000000000000FEFEFEC7
:1007C000FEFEFEFE7F7F7F7F7F7F7F0EF911183058
:1007D0000B100D0F0F110F101010100480F0FC7E85
:1007E0000E0F070707070F1E7EFCF080FFFFFF00BC
:1007F000000000000000000000FFFFFF010F3F7E2F
:1008000070F0E0E0E0E0F0707E3F0F0138383838FB
:100810003CFFFFFF00000000000000000000FFFFA1
:10082000FF0000000000E0E0E0E0E0FFFFFFE0E0AC
:10083000E0E0E0001E0E0E07070707070F1EFEFC94
:10084000F000000000000080C0E0F0783E1F0701CB
:1008500000F0F8FCFEEFE7E3E1E0E0E0E0E0E0E0FC
:10086000001E0E0E0707070707070F1EFEFCF80005
:10087000000000001C1C1C1C1E3677F3E1C07870C1
:1008800070F0E0E0E0E0E0F070783F1F0F00000063
:10089000000080C0F0F87C1EFFFFFF000000E0F0C9
:1008A000FCFEDFC7C3C1C0C0C0FFFFFFC0C0C001A6
:1008B00001010101010101010101FFFFFF0101012E
:1008C00000FFFFFF070707070707070707070700DE
:1008D0001F1F0F0E0E0E0E0E1E1C3CF8F8E0787057
:1008E00070F0E0E0E0E0E0F0707C3F1F0700C0F057
:1008F000F83C1E0E0E07070707070F0000FEFFFF5C
:100900001C1C0E0E0E0E0E0E1E3CF8F8E0030F3FE0
:100910007C78F0E0E0E0E0E070783F1F0707070731
:10092000070707070707070787E7FF7F1F00000084
:1009300000000000C0F0FC3F0F0701000000008035
:10094000E0F8FC3F0F030000000000000000F0FC96
:10095000FE0E0F070707070F1EFEFCF80080E0F3EE
:10096000771F0E0E0C1C1C1C3E77F3E0800F1F3F00
:100970007870F0E0E0E0E0E070783F1F0FE0F8FC16
:100980001E0E07070707070F1E3EFCF0C0071F1FBC
:100990003C787070707070703838FFFF7F0000F026
:1009A000E0E0E0E0E07070783C1F0F0300C0C0C0E2
:1009B000C003030303F0F0F0F004080201104080CC
:1009C0004010204080408008020401804020100236
:1009D0000110801020404020000000002500280069
:1009E0002B002E0031000404040404030405020259
:1009F00002020403020202020606060606060404B8
:100A00000202020404004B23D82D11241FBECFEF95
:100A1000DAE0DEBFCDBF27E0AAE5B2E001C01D925B
:100A2000AF3EB207E1F712E0A0E0B1E0EEEDFAE68A
:100A300002C005900D92AA35B107D9F715E0C4E0C0
:100A4000D5E004C02197FE010E945633C330D10780
:100A5000C9F70E94A8250C9462350C9400001092EE
:100A600082051092830510928405109285051092DC
:100A700086051092870510928805109289051092BC
:100A80008A0510928C0510928E0510928F05109297
:100A9000900510929105109296051092970510926C
:100AA0009805109299051092920510929305109254
:100AB000940510929505109211061092100690E080
:100AC00080E0FC01EE0FFF1FEE0FFF1FE055FA4F15
:100AD000108211821282138201968831910589F762
:100AE000089510927505109274051092AA0510923F
:100AF000AB051092AC051092AD050E942F05E09158
:100B00007E05F0917F05309709F0099408954F9282
:100B10005F926F927F928F929F92AF92BF92FF925D
:100B20002091BF073091C0078217930708F043C098
:100B30002B0166247724852E962EA72EBB24B82D54
:100B4000A42F2091C507F42C222391F0E22FF0E08E
:100B5000E49DD001E59DB00DF49DB00D1124FB2E58
:100B6000289D40011124B92D249F90011124A32F09
:100B7000E091CB072091C6073091C7075091C80775
:100B8000E51323C0FC01EE0FFF1F8E0F9F1F820F86
:100B9000931FE091C807E80FF92FF11DF082E09153
:100BA000C907E80FF92FF11DB0832091CA07820F02
:100BB000911DFC01A083FF90BF90AF909F908F90FC
:100BC0007F906F905F904F900895880F991F880FC6
:100BD000991F820F931FE80FF92FF11D1082D9CFB3
:100BE000CF92DF92EF92FF928091AE059091AF0588
:100BF000019761F480910C0690910D06A0910E066C
:100C0000B0910F06892B8A2B8B2B69F46091A60576
:100C10007091A7058091A8059091A905FF90EF908C
:100C2000DF90CF90089530E020E060E070E0CB01ED
:100C3000F901EE0FFF1FEE0FFF1FE055FA4FC080C6
:100C4000D180E280F3806C0D7D1D8E1D9F1D2F5F76
:100C50003F4F2831310561F7611571058105910517
:100C6000A9F228E130E040E050E00E941533CA01CB
:100C7000B9010E946C3020E034E244E759E40E945C
:100C80005F329B01AC0160E070E080E89FE30E946E
:100C90005F3220E030E040EC51E40E945F3220E01F
:100CA00030E040E752E40E94CD30B8CF9093E607A1
:100CB0008093E507FC0124913196E491F22F31975E
:100CC00019F41092E007089581E08093E0070895F9
:100CD000CF93DF931F92CDB7DEB76983DC01ED912F
:100CE000FC910280F381E02D41E050E0BE016F5F96
:100CF0007F4F09950F90DF91CF91089581508F30EC
:100D000008F047C0E82FF0E0E857F94F0C9456334D
:100D1000A506A90697069D06A106C906C906C90625
:100D2000AC06B206B606BA06C006C906C40680916D
:100D300080008F77809380000895809180008F7D60
:100D4000F9CF80918000877FF5CF84B58F7784BD00
:100D5000089584B58F7DFBCF809190008F7780932D
:100D600090000895809190008F7DF9CF8091900040
:100D7000877FF5CF8091C0008F778093C000089562
:100D80008091C0008F7DF9CF8091C200877F8093D2
:100D9000C2000895CF93DF93282F30E0F901EA597C
:100DA000FD4F8491F901E754F64FD491F901EA51CE
:100DB000F64FC491CC23A1F081110E947E06EC2F46
:100DC000F0E0EE0FFF1FE85AFD4FA591B491EC91B2
:100DD000ED2381E090E009F480E0DF91CF91089568
:100DE00080E090E0FACF1F93CF93DF93282F30E07D
:100DF000F901EA59FD4F8491F901E754F64FD49176
:100E0000F901EA51F64FC491CC23A9F0162F8111B4
:100E10000E947E06EC2FF0E0EE0FFF1FE852F64F27
:100E2000A591B4918FB7F894EC91111108C0D095A9
:100E3000DE23DC938FBFDF91CF911F910895DE2BCE
:100E4000F8CFCF93DF9390E0FC01E754F64F249165
:100E50008A51964FFC0184918823C9F090E0880F55
:100E6000991FFC01E65BFD4FA591B491FC01E8528E
:100E7000F64FC591D49161110DC09FB7F8948C9134
:100E8000209582238C938881282328839FBFDF911C
:100E9000CF910895623051F49FB7F8943C91822F1E
:100EA000809583238C93E8812E2BEFCF8FB7F89416
:100EB000EC912E2B2C938FBFEACF3FB7F894809103
:100EC000130490911404A0911504B091160426B552
:100ED000A89B05C02F3F19F00196A11DB11D3FBF72
:100EE000BA2FA92F982F8827BC01CD01620F711D41
:100EF000811D911D42E0660F771F881F991F4A953B
:100F0000D1F708950F931F93CF93DF93CDB7DEB73B
:100F100029970FB6F894DEBF0FBECDBF8091C607EC
:100F20009091C707892B09F47CC00E945D0700914E
:100F3000CC071091CD072091CE073091CF076017D5
:100F400071078207930740F46093CC077093CD0735
:100F50008093CE079093CF070091CC071091CD07D7
:100F60002091CE073091CF07601B710B820B930B42
:100F70006C32714081059105C0F2F8948091C107EF
:100F80009091C2079A838983E091C607F091C707C1
:100F9000DF011196808189879091BD07E091D0078C
:100FA000F091D1078091D207992309F445C090812F
:100FB000982B98879081809589238F838F818C834C
:100FC00088E08B8358856F8149853B812C8189819D
:100FD0009A81508347FD252F3A952083262F39F09B
:100FE000441F00C000006083000000C0F2CF38E062
:100FF0004D9160830000019761F7F093D107E09372
:10100000D00749873B832C839A83898378940E94F5
:101010005D076093CC077093CD078093CE079093C4
:10102000CF0729960FB6F894DEBF0FBECDBFDF9174
:10103000CF911F910F9108959081982B988790815F
:10104000809589238F838F818E8388E08D83588557
:101050006F8149853D812E8189819A81508347FD29
:10106000252F00C000C0208300C000C000C000C009
:1010700000C060830000262F3A9541F0441F000015
:1010800000C000C000C000C000C0E8CF38E04D91F3
:1010900000C0608300C0019709F7F093D107E09387
:1010A000D00749873D832E83AFCF8F929F92AF9217
:1010B000BF92CF92DF92EF92FF926B017C010E9470
:1010C0005D074B015C01C114D104E104F104B9F0E6
:1010D0000E945D07681979098A099B09683E734077
:1010E0008105910580F321E0C21AD108E108F108D9
:1010F00088EE880E83E0981EA11CB11CE4CFFF90FF
:10110000EF90DF90CF90BF90AF909F908F90089519
:101110002FB7F89460910F0470911004809111041E
:10112000909112042FBF08950E942F050E948808F5
:101130006093AA057093AB058093AC059093AD05C1
:10114000E0917C05F0917D05309709F0099580913B
:10115000AE059091AF05892B39F482E090E0909331
:10116000750580937405089581E090E0F8CF809133
:10117000FD0308958091FE0308958091FF03089573
:1011800080910004811102C0809103040895809130
:101190000104811102C08091040408958091020429
:1011A000811102C08091050408950895089508955D
:1011B0008093E9008091F200882319F08AE38093FC
:1011C000E800089580916B058F5F0C94D80883E048
:1011D0000C94D8084091D4025091D5022091D202AB
:1011E0003091D30242175307B4F49091E800957000
:1011F000E1F39091E80092FD19C08093F100809195
:10120000D4029091D50201968F739927892B19F4F6
:101210008EEF8093E8008091D4029091D5020196E0
:101220009093D5028093D40281E0089580E00895E0
:10123000DF92EF92FF920F931F93CF93DF93D82EFD
:101240008A01EB017B01E40EF51ECE15DF0559F096
:10125000D7FE12C0FE0184910E94EA0821968111F6
:10126000F4CF0FEF1FEFC801DF91CF911F910F91C6
:10127000FF90EF90DF9008958881EECF2FB7F8941C
:1012800087708093E9009091E800892F807295FF24
:1012900004C09091F20080E4891B2FBF089583E081
:1012A0000E943E0990E008957F928F929F92AF92A4
:1012B000BF92CF92DF92EF92FF920F931F93CF9343
:1012C000DF93C82E8B017A018091DB02811110C05F
:1012D0008FEF9FEFDF91CF911F910F91FF90EF90D4
:1012E000DF90CF90BF90AF909F908F907F900895A8
:1012F0008091D90280FF05C08091E00082608093D8
:10130000E000CE2DDF2DD12C8AEFB82E8C2D8770EA
:10131000982E8C2D8072882E8C2D8074782E9AE3D6
:10132000A92E209719F4DD2009F452C08C2D0E94BB
:101330003E0981110AC0BA94BB2051F261E070E00D
:1013400080E090E00E945508ECCF8C171D0611F04C
:101350000CF08C2F9FB7F8949092E9002091E80050
:1013600025FD02C09FBFDDCF282F30E0C21BD30B6D
:10137000882029F08150A0F01092F100FBCFF801F5
:10138000C7FC0AC0815050F041914093F100FACF60
:1013900044914093F10031968150D0F7020F131F12
:1013A000DD2021F0A092E800D12CDCCF8091E80074
:1013B00085FD07C0A092E800DD24D394209791F228
:1013C000F3CF209779F6772069F2A092E800CACF90
:1013D0005D9884E68093D802C7017CCFCF93DF93DA
:1013E00000D000D0CDB7DEB769837A838B839C832E
:1013F00080916B0544E050E0BE016F5F7F4F8F5FCF
:101400000E9454090F900F900F900F90DF91CF9191
:101410000895CF93DF93EC0180911B01882331F075
:1014200083E00E9454091816190634F081E090E018
:101430009B838A8380E090E0DF91CF910895909123
:10144000DB02992319F13FB7F89487708093E90084
:101450008091F20090E0481759070CF4CA01282F38
:10146000FB0154E6215038F028985093D702409160
:10147000F1004193F7CF009739F02091F20021114C
:1014800003C02BE62093E8003FBF08958FEF9FEF46
:1014900008950F931F93CF93DF931F92CDB7DEB7BD
:1014A0008C01FC018485958597FF0FC041E050E0D9
:1014B000BE016F5F7F4F82E00E941F0A019771F4A7
:1014C000898190E0F80195878487F8018485958566
:1014D0000F90DF91CF911F910F9108958FEF9FEFA4
:1014E000F1CFCF93DF931F92CDB7DEB7FC01848598
:1014F000958597FD08C02FEF3FEF358724870F9024
:10150000DF91CF91089541E050E0BE016F5F7F4FC2
:1015100082E00E941F0A019719F4898190E0EFCFC1
:101520008FEF9FEFECCF9FB7F89487708093E9001F
:101530008091F2009FBF0895FC018485958597FDF9
:1015400006C082E00E94930A90E00196089582E02E
:101550000E94930A90E00895615030F02091F100CC
:10156000FC0120830196F8CF289884E68093D70267
:101570000895AF92BF92CF92DF92EF92FF920F93B6
:101580001F93CF93DF936C017B018B01040F151F19
:10159000EB015E01AE18BF08C017D10759F0699181
:1015A000D601ED91FC910190F081E02DC6010995E5
:1015B000892B79F7C501DF91CF911F910F91FF9092
:1015C000EF90DF90CF90BF90AF900895FC014481E1
:1015D00055816081718187ED97E00C94B90A809103
:1015E000CA0281110DC082E08093C60284E080931C
:1015F000C7021092C9021092C80281E08093CA0209
:1016000086EC92E008950F931F93CF93DF931F9280
:10161000CDB7DEB782E0898342E450E06FEC71E041
:1016200080E80E9418090E94EF0ADC0112960D91D1
:101630001C910115110589F0D801ED91FC910280F2
:10164000F381E02DBE016F5F7F4FC801099597FDC3
:1016500004C0F80100851185ECCF89810F90DF91DE
:10166000CF911F910F910895FC01538D448D252F2B
:1016700030E0842F90E0821B930B541710F0CF962C
:10168000089501970895FC01918D828D981761F05E
:10169000A28DAE0FBF2FB11D5D968C91928D9F5F75
:1016A0009F73928F90E008958FEF9FEF0895FC0154
:1016B000918D828D981731F0828DE80FF11D858D07
:1016C00090E008958FEF9FEF0895FC01918D228D9A
:1016D000892F90E0805C9F4F821B91098F7399271F
:1016E00008958FEB94E00E94650B21E0892B09F4AB
:1016F00020E0822F089580E090E0892B29F00E945D
:10170000710B81110C9400000895FC01A48DA80FA9
:10171000B92FB11DA35ABF4F2C91848D90E0019633
:101720008F739927848FA689B7892C93A089B18953
:101730008C9182748C93938D848D981306C002884B
:10174000F389E02D80818F7D80830895EF92FF9251
:101750000F931F93CF93DF93EC0181E0888F9B8DD4
:101760008C8D981319C0E889F989808185FF14C090
:101770009FB7F894EE89FF896083E889F9898081B1
:10178000827480839FBF81E090E0DF91CF911F91B1
:101790000F91FF90EF900895F62E0B8D10E00F5FE4
:1017A0001F4F0F731127E02E8C8D8E110CC00FB6BA
:1017B00007FCFACFE889F989808185FFF5CFCE0152
:1017C0000E94850BF1CFEB8DEC0FFD2FF11DE35A3D
:1017D000FF4FF0829FB7F8940B8FEA89FB898081D5
:1017E0008062CFCF682F8FEB94E00C94A60BCF9341
:1017F000DF93EC01888D8823B9F0AA89BB89E88939
:10180000F9898C9185FD03C0808186FD0DC00FB6DE
:1018100007FCF7CF8C9185FFF2CF808185FFEDCF5C
:10182000CE010E94850BE9CFDF91CF910895CF9330
:10183000DF93EC018D85882329F081508D87DF911E
:10184000CF9108959C818E819817C8F78889682761
:10185000E881F9810084F185E02D42E0CE0109950F
:101860008C818F5F8C83EBCFDC01ED91FC91008448
:10187000F185E02D40E00994FC012781269526950D
:101880002695621738F465832385620F6770606B55
:101890000C94340C08950F931F93CF93FC01268171
:1018A000621798F4C62F8C0164836085C60F6C2F75
:1018B0006F700E94340C6C2F62956F706061C8016C
:1018C000CF911F910F910C94340CCF911F910F91D8
:1018D0000895CF92DF92EF92FF920F931F93CF93D1
:1018E000DF93EC01F62EC42ED22E1D868F818695B5
:1018F00086958695081710F00FEF080F1D2D6F2D98
:10190000CE01011788F00E944B0C612FCE010E947E
:101910003C0CEF2CCE1430F06889CE010E94170CDD
:10192000E394F8CF1F5FEBCF0E944B0C6D2DCE01DF
:10193000DF91CF911F910F91FF90EF90DF90CF90AB
:101940000C943C0C0F93CF93DF93C7EDD7E01B862D
:101950001A8660E4CE010E94340C0F81069506952C
:10196000069501504E81415020E060E0CE010E947A
:10197000690CDF91CF910F9108952F923F924F9272
:101980005F926F927F928F929F92AF92BF92CF920F
:10199000DF92EF92FF920F931F93CF93DF9300D0CC
:1019A00000D000D01F92CDB7DEB79F838E83DC01BD
:1019B0001E968D919C91009709F477C1FC01329697
:1019C000549031962491E22EF12CB7E0EB0EF11CED
:1019D00043E0F594E7944A95E1F7E9823196349132
:1019E000319644916D3001F560E08E819F810E94B7
:1019F0004B0C81E090E027960FB6F894DEBF0FBE47
:101A0000CDBFDF91CF911F910F91FF90EF90DF90AD
:101A1000CF90BF90AF909F908F907F906F905F908E
:101A20004F903F902F9008956A3009F061C060E0B8
:101A30008E819F810E944B0CEE81FF8101890E9D5A
:101A4000E02C112465816E0D8485882349F027815F
:101A50002695269526958E2D821B860F18162CF01E
:101A60008E819F810E943C0CC4CFAE81BF811B96AA
:101A70009C911B97890F87701B968C931B972E192F
:101A800015962C9315971E96ED91FC91309771F158
:101A90003396E491F0E0379633E0F595E7953A9583
:101AA000E1F70E9F002D1124EFEFE20F0E0FEE81F4
:101AB000FF81468141506481CF010E94690CAE8153
:101AC000BF811C968C911C97813009F092CF1B9698
:101AD0006C911B97660F660F660F6F731A966C9367
:101AE0001A976064CD010E94340C83CF00E0DCCFF4
:101AF000631760F1A32FA40FBB27BB1F6A171B0638
:101B00002CF5631B212C8C010A5F1F4FEE81FF8196
:101B100051853189539F302D11243D83211014C0EC
:101B2000FC0134910196FC018491932F0297A0F45B
:101B30005E9C90015F9C300D1124629FC001639FE9
:101B4000900D1124080F191F612C28C0603209F074
:101B5000ACC022242394D7CF277088E0682E621A65
:101B6000211101C0612CF80120E090E080E06217B3
:101B700031F03491830F911D2F5F3196F8CFF8012A
:101B8000E60FF11D5490E89EF001E99EF00DF89EDD
:101B9000F00D1124E40FF11D0E0F1F1FAE81BF8148
:101BA0001496BC91BA83EE81FF81F581FB83AE81EF
:101BB000BF811D96BC91BC83852C912CAA24A39433
:101BC000B12C312CE9813E1608F06DC0412CAE815C
:101BD000BF8151968C915197481608F05DC0EC81F9
:101BE0001D96EC93311002C0442079F0AE81BF8184
:101BF0001596DC901597D3946A81CD010E944B0C09
:101C00006D2D8E819F810E943C0CD12CC12CC5145E
:101C1000B0F5712C211004C0F601E00FF11F749093
:101C2000662061F0EA14FB0449F4E72DF0E0062C8D
:101C300002C0F595E7950A94E2F77E2EEE81FF81CA
:101C40008189823079F44420B1F072948FE0782257
:101C5000E72DF0E0E154FE4F7490672D8E819F8157
:101C60000E94170C672D8E819F810E94170C3FEFF9
:101C7000C31AD30ACCCFF72DFF707F2EE9CFD12C1A
:101C80008D81D81639F060E08E819F810E94170CFB
:101C9000D394F6CF43949BCF3394AFEFAA1ABA0AEA
:101CA000080D191D8FCF6B81DBCE90E080E0A3CEB5
:101CB0002091A302260F3327331F21323105ECF484
:101CC00020913D04FC0190E080E0243069F082E046
:101CD0000895A091A3022191AC014D575D4FA40F2F
:101CE000B52FB11D2C930196861798F38091A3020E
:101CF000680F6093A30280E0089581E00895109238
:101D00003D0481E080933C041092170461E082E07E
:101D10000E94F30661E083E00E94F306E9EBF0E045
:101D200080818E7F808380818D7F808388E4809313
:101D3000B80085E48093BC000895CF93DF9391E0D1
:101D4000909382028823B9F0C091B800D091BA0074
:101D50008091BC008A7B8093BC0060E082E00E949E
:101D6000F30660E083E00E94F3060E947F0ED093AA
:101D7000BA00C093B800DF91CF910895CF92DF925F
:101D8000EF92FF920F931F93CF93DF93D09166044E
:101D900081E0D13208F09CC0C09165040E945D07CB
:101DA0006B017C0180913D0481116CC082E08093C5
:101DB0003D0481E080933C048FEF80933B041092BC
:101DC0003A04D0933904A5E4B4E0E9E1F4E080E01A
:101DD000D8138DC01092180480911804CC0FC82B12
:101DE000C093180480911704813009F084C01092C8
:101DF00017040E945D076B017C0180911804809399
:101E0000BB0080913F0490914004A0914104B091A7
:101E10004204892B8A2B8B2BA1F00E945D07009135
:101E20003F041091400420914104309142046C1908
:101E30007D098E099F09061717072807390708F437
:101E400042C08091BC0083FDD8CF85EC8093BC005C
:101E50000E945D076B017C0180913D04823009F492
:101E60004CC080913B048F3F09F469C080913B04D2
:101E7000803209F466C080913B04803309F463C06A
:101E800084E026C080913F0490914004A0914104D9
:101E9000B0914204892B8A2B8B2B09F483CF0E94AB
:101EA0005D0700913F04109140042091410430915E
:101EB00042046C197D098E099F0906171707280728
:101EC000390708F06FCF80913E040E949D0E85E097
:101ED000109244041092660410924304DF91CF9153
:101EE0001F910F91FF90EF90DF90CF9008959D91FB
:101EF00091938F5F6DCF85EEA9CF80913F04909134
:101F00004004A0914104B0914204892B8A2B8B2B71
:101F100009F4A2CF0E945D0700913F041091400494
:101F200020914104309142046C197D098E099F096A
:101F3000061717072807390708F08ECFC4CF80E0AF
:101F4000C7CF82E0C5CF83E0C3CF0895E091E1021F
:101F50008091E002E81730F4F0E0EE59FD4F808107
:101F600090E008958FEF9FEF08959091E1028091A6
:101F7000E0022FEF3FEF981748F4E92FF0E0EE5919
:101F8000FD4F208130E09F5F9093E102C9010895E9
:101F90008091E0029091E102891B990B0895CF9204
:101FA000DF92EF92FF920F931F93CF93DF937C0109
:101FB000CB018A0120914304222389F0EB016B01BC
:101FC000C40ED51ECC15DD0569F06991D701ED91E0
:101FD000FC910190F081E02DC7010995F3CF642FAA
:101FE0000E94580EC801DF91CF911F910F91FF9071
:101FF000EF90DF90CF900895CF93DF931F92CDB7EE
:10200000DEB76983209143042223F9F0209166040E
:10201000203258F021E030E0FC013383228390E04D
:1020200080E00F90DF91CF91089580914404E82FD4
:10203000F0E0EB5BFB4F998190838F5F80934404CA
:102040008093660481E090E0ECCF61E0CE010196E0
:102050000E94580EF7CF90E080E0089580E0089548
:102060000F931F93CF93DF93CDB7DEB7C456D1093B
:102070000FB6F894DEBF0FBECDBFFC01DB019C9113
:102080009E5F9C939E01295F3F4F8AE5D9011D9277
:102090008A95E9F788E089838BE08A8322E02C83A4
:1020A00091E09D839E8339E0398764E06A879E874B
:1020B0009F873A8B44E24B8B9C8BA0E0B1E0BE8BB8
:1020C000AD8B09E010E0188F0F8B998F3B8F6C8FD1
:1020D0002F8F98A353E059A387E08CA34DA39EA311
:1020E000B8A7AFA3A1E4B0E0BAA7A9A786E08BA7E1
:1020F0004CA72DA79EA79FA789AB4AAB2BAB2CABB8
:102100002DAB3FAB48AF59AF9AAF5BAF9CAF2DAF94
:102110009EAF21963FAF219722964FAF22972396ED
:102120005FAF239724962FAF249725966FAF2597FF
:1021300026969FAF269727969FAF279728969FAF03
:1021400028972A963FAF2A9745E02B964FAF2B97BB
:102150002D962FAF2D9760E470E02F967FAF6EAF76
:102160002F9763964FAF639785E264968FAF64971E
:1021700065969FAF659766969FAF669767969FAF88
:10218000679768963FAF689769964FAF69976B9668
:102190002FAF6B976D967FAF6EAF6D97A1964FAFD8
:1021A000A197A2968FAFA297A3969FAFA397A4964D
:1021B0009FAFA497A5965FAFA59792819B839B87BE
:1021C0009F5F9A8F9D8F83812C968FAF2C978F5F07
:1021D00080686A968FAF6A9744E650E0BE016F5FF1
:1021E0007F4F80E00E941809CC59DF4F0FB6F8945A
:1021F000DEBF0FBECDBFDF91CF911F910F9108952C
:10220000DC019096ED91FC91309709F00994FC0166
:1022100082810E94CA060895CF92DF92EF92FF92C8
:10222000CF93DF93FC0122812F3FD9F0EC01838112
:102230008483CF010E9400118B839CA9891370C0F5
:102240000E9488086B017C019C818CA9981781F001
:10225000CE86DF86E88AF98A1F8ECA86DB86EC8600
:10226000FD86DF91CF91FF90EF90DF90CF900895A2
:102270008F8D811124C08E859F85A889B989B7016A
:10228000A601481B590B6A0B7B0B8F89988DB0E018
:10229000A0E0481759076A077B0788F081E08F8F15
:1022A0008D818F5F8D83EEA1FFA1309711F0CE015C
:1022B0000995EAA1FBA1309711F0CE0109952D8176
:1022C000213079F6EEA5FFA5309759F28E8981115C
:1022D000C8CF8B899C8901964E855F8568897989ED
:1022E000C41AD50AE60AF70A698D7A8D869FA0017D
:1022F000879F500D969F500D112470E060E0C4162A
:10230000D506E606F70608F4ACCF3A89311101C0CC
:102310002E8B9C8B8B8BCE01099581E08D8BA1CF71
:102320000E9488083C812CA9321326C02E853F8547
:10233000621B730B7E8F6D8F8F89988D681779075D
:1023400008F48FCFEEA1FFA1309711F0CE010995CF
:10235000ECA1FDA1309711F0CE010995E8A5F9A5F2
:10236000309711F0CE0109952D8D3E8D898D9A8D76
:102370002817390790F675CFCA84DB84EC84FD8476
:102380006C197D098E099F09CB8CDC8CF12CE12C1A
:10239000C616D706E806F90608F063CF8D818823B4
:1023A00009F45FCF8E83813011F58D898823B1F0D8
:1023B00083E090E098878F83ECA5FDA5309711F01E
:1023C000CE0109951C8A1B8A81E089871D821A86A5
:1023D0001B861C861D861D8A1E8A43CF18861F8277
:1023E000EAA5FBA5309781F3CE010995EDCF8230A8
:1023F00039F481E090E098878F83E8A9F9A9F2CFBA
:1024000082E090E098878F83EAA9FBA9EBCFCF9277
:10241000DF92EF92FF920E946C3020E034E244E7BA
:1024200059E40E945F329B01AC0160E070E080E8FB
:102430009FE30E945F326B017C01AC019B0160E075
:1024400074E284E79BE40E945F320E94D1326F3FC6
:102450002FEF72078105910508F47CC020E030E081
:1024600040E051E4C701B6010E94CD309B01AC01B0
:1024700060E074E284E79BE40E945F320E94D13204
:102480006F3F2FEF72078105910508F465C020E0CA
:1024900030E040E852E4C701B6010E94CD309B0114
:1024A000AC0160E074E284E79BE40E945F320E942A
:1024B000D1326F3F2FEF72078105910508F44EC0AE
:1024C00020E030E040E853E4C701B6010E94CD307F
:1024D0009B01AC0160E074E284E79BE40E945F3200
:1024E0000E94D1326F3F2FEF720781059105C0F135
:1024F00020E030E040E854E4C701B6010E94CD304E
:102500009B01AC0160E074E284E79BE40E945F32CF
:102510000E94D1326F3F2FEF720781059105A8F419
:1025200025E0F89410928100615071097093890040
:102530006093880080918100886080938100809101
:102540008100282B209381007894FF90EF90DF90FA
:10255000CF90089521E0E5CF22E0E3CF23E0E1CF63
:1025600024E0DFCFCF92DF92EF92FF922091AE0571
:102570003091AF052130310509F43CC06B017C017D
:1025800020E030E040E85FE30E94673087FD32C022
:1025900020E030E046E953E4C701B6010E94003371
:1025A000181644F1F894C092A605D092A705E092BF
:1025B000A805F092A90578942091800530918105B5
:1025C000032E000C440B550B60E077E883E993E0A1
:1025D0000E943733CA01B9010E946E30A7019601EB
:1025E0000E945F320E94D132FF90EF90DF90CF9037
:1025F0000C940712FF90EF90DF90CF900895CF9248
:10260000DF92EF92FF926B017C0180916A0481500E
:10261000823090F4A7019B0160E070E68AE697E4BF
:102620000E945F320E94D1326093830770938407C7
:102630008093850790938607C701B601FF90EF90BE
:10264000DF90CF900C94B2124F925F926F927F9274
:102650008F929F92AF92BF92CF92DF92EF92FF92B2
:10266000CF93DF9300D000D000D0CDB7DEB78091FC
:102670006A048150823008F04CC10E9488086B01C6
:102680007C0180917A0781111DC180908B07909009
:102690008C07A0908D07B0908E078091660790916F
:1026A0006707A0916807B0916907880D991DAA1D59
:1026B000BB1DC816D906EA06FB06B8F4A0916E0742
:1026C000B0916F072091830730918407409185076F
:1026D000509186070E945C33680D791D8A1D9B1DF1
:1026E000C616D706E806F90608F11092BA07109246
:1026F000B9071092B8071092B707C0928707D09217
:102700008807E0928907F0928A072091700730913C
:102710007107EFE8F7E090E080E08217930734F468
:1027200011921192119211920196F7CFC0928B07DC
:10273000D0928C07E0928D07F0928E072091B90716
:102740003091BA073E832D83C90101969093BA0751
:102750008093B9078130910509F4B4C0A7019601AF
:10276000281939094A095B0949015A012091BB0717
:10277000222309F487C003970CF484C08091BC071E
:10278000811180C0CA01B4010E946C3069837A83D0
:102790008B839C8360918307709184078091850768
:1027A000909186070E946C302B013C0120917207AA
:1027B0003091730740917407509175070E94CD3096
:1027C0009B01AC0169817A818B819C810E940033DD
:1027D00018160CF057C0209176073091770740917A
:1027E000780750917907C301B2010E94CD309B0157
:1027F000AC0169817A818B819C810E94673087FF5F
:1028000041C0B694A7949794879481E08093BC07C5
:102810008091B7079091B807FC01EE0FFF1FEE0FF4
:10282000FF1FEA59F84F81A692A6A3A6B4A6019667
:102830009093B8078093B707409170075091710744
:102840008417950721F41092B8071092B7072D81CD
:102850003E81421753070CF49A01EFE8F7E050E08D
:1028600040E060E070E0CB014217530774F48190C0
:102870009190A190B190680D791D8A1D9B1D4F5FAD
:102880005F4FF2CF1092BC07C3CF032E000C440B56
:10289000550B0E94153380916A0790916B07A091A8
:1028A0006C07B0916D0782179307A407B50710F462
:1028B000DA01C9018093830790938407A093850769
:1028C000B093860781E080937A0780917B0790918F
:1028D0007C07A0917D07B0917E0780937F0790933E
:1028E0008007A0938107B09382078091870790911A
:1028F0008807A0918907B0918A07C81AD90AEA0AFD
:10290000FB0AC0927B07D0927C07E0927D07F09291
:102910007E0726960FB6F894DEBF0FBECDBFDF91BF
:10292000CF91FF90EF90DF90CF90BF90AF909F90AE
:102930008F907F906F905F904F90089560912D01E0
:1029400070912E0180912F019091300130916A0495
:102950002FEF230F233040F40E94EE090E94E2087B
:102960008CEF90E00C94F20B3430D1F30895609129
:102970003101709132018091330190913401309195
:102980006A042FEF230F233040F40E94EE090E94C7
:10299000E2088AEF90E00C94F20B3430D1F3089502
:1029A00080916E0481110CC080916D04811108C06A
:1029B0000E94B7140E94940881E080936E040895E9
:1029C00081E080936C04F8CF8091090481110FC0DD
:1029D00080916A048150823010F40E94D01480915A
:1029E0006A048350823018F481E080936C04089567
:1029F00008950F931F93CF930DEF13E0C0E06C2F5A
:102A000061708091D3070E94F3066C2F62708091F1
:102A1000D4070E94F3066C2F64708091D5070E9442
:102A2000F3066C2F68708091D6070E94F30682E14E
:102A30000E94CA0621E0892B09F420E0F8012193C5
:102A40008F01CF5FC031D9F6CF911F910F910895BB
:102A50000F931F93CF93DF93EC01062F142F8B89D5
:102A6000813120F4882329F0411103C00E94BE0E59
:102A70001B8A8B89811112C08A8991E0909343044B
:102A800080936504109244041092660460E411116E
:102A900001C060E08CE595E00E94FC0F602F8CE5A2
:102AA00095E00E94FC0F123041F48B898F5F8B8B75
:102AB000DF91CF911F910F9108950E94BE0E1B8A46
:102AC000F7CF089590E080E00895BF92CF92DF9213
:102AD000EF92FF920F931F93CF93DF937C01062F0A
:102AE000EC0123E0D595C7952A95E1F760E083E1F5
:102AF0000E94F30687E0E822FF2481E090E0A0E056
:102B0000B0E004C0880F991FAA1FBB1FEA94D2F738
:102B1000D82E182F1095F12CE12CE091E202F091C3
:102B2000E302EE0DFF1DCE15DF0529F480810023A1
:102B300061F18D298083B08088E0C82E6B2D661FDF
:102B40006627661F84E00E94F306BB0C61E085E007
:102B50000E94F30660E085E00E94F306CA94C1106B
:102B6000EDCFEA94EF2869F461E083E1DF91CF9142
:102B70001F910F91FF90EF90DF90CF90BF900C943A
:102B8000F306EE24E394F12CC8CF8123D3CF8F92A8
:102B90009F92AF92BF92CF92DF92EF92FF924B0142
:102BA0005C01E0916704F0E0E35CFE4FC08086E0EA
:102BB000C89E600111240D2C000CEE08FF08C50111
:102BC000A70196010E941533672B682B692B79F4B6
:102BD00080916E04882351F161E084E10E94F30644
:102BE0008091FB03883CD0F58F5F8093FB03C50188
:102BF000B4016150710981099109A70196010E94F0
:102C00001533672B682B692B09F03FC080916E0448
:102C1000882339F160E084E1FF90EF90DF90CF905E
:102C2000BF90AF909F908F900C94F30680916B04AF
:102C30008823B1F260E08EE090E00E94651561E0CB
:102C400084E10E94F30661E08FE090E00E94651548
:102C500010926B0481E080935A02C2CF1092FB0362
:102C6000C6CF80915A02882381F060E084E10E94FF
:102C7000F30661E08EE090E00E94651560E08FE071
:102C800090E00E94651510925A02FF90EF90DF903D
:102C9000CF90BF90AF909F908F900895CF93DF9388
:102CA000EC0188819981009711F00E94003419820B
:102CB00018821D821C821B821A82DF91CF91089597
:102CC000FC0180819181009711F00C9400340895EB
:102CD000EDEBF7E04481558170E060E081859285FD
:102CE0000C945435CF93DF93EC0180916C044BE34B
:102CF00050E0BA0181111BC0209799F40E94681618
:102D000040E05BE360E070E0CE010E948705219621
:102D1000C430D105A9F70E948207DF91CF910C94AE
:102D200082070E9468164BE350E060E070E0CE013D
:102D30000E948705F2CFCF93DF930E946816D0E000
:102D4000C0E040E050E06BE370E0CE010E948705F8
:102D50002196C430D105A9F7DF91CF910C94820759
:102D60000E9468160C94820710926E0410926C04F4
:102D70000E949E1460E084E10E94F30681E080934B
:102D80006B040C94B01680910904811107C08091E6
:102D90006A048150823010F40C94B4160895809126
:102DA0006A049FEF980F923010F40C9494088350AB
:102DB000823038F40E94B4160E94710581E080933D
:102DC0002706089564EF71E080E090E00E945508C6
:102DD0000C94B016CF92DF92EF92FF926B017C01C0
:102DE00081E0C816D104E104F10459F0C70120E6DE
:102DF00030E040E050E00E941533672B682B692BD0
:102E000029F58CE08093000110925B0280916E04A2
:102E1000882321F090E080E00E94721682E0809387
:102E2000270681E080935B0280916A0483508230A0
:102E300040F480916C04882321F00E94B714109212
:102E40006C04FF90EF90DF90CF900895C701B6011A
:102E500028E130E040E050E00E941533672B682BFA
:102E6000692BA1F488E080930001F0905B028091CF
:102E70006E04882321F08F2D90E00E94721682E06C
:102E800080932706F394F0925B02DBCF2091000140
:102E900030E050E040E0C701B6010E941533672BD7
:102EA000682B692B71F680916C048111CACF0E9446
:102EB000B01683E080932706C4CF8F929F92AF9283
:102EC000BF92CF92DF92EF92FF92CF93DF936B018D
:102ED0007C01D0916A04CFEFCD0FC23080F46091B5
:102EE00035017091360180913701909138010E942F
:102EF000EE090E94E20888EF90E00E94F20B8091B8
:102F00006C04882329F1C701B60120E630E040E0D7
:102F100050E00E9415334B015C012091680480E66B
:102F200090E0821B9109092E000CAA0BBB0B88169E
:102F30009906AA06BB06F1F4D230E1F40E949E1471
:102F400089288A288B2821F40E94B71410926C04D7
:102F5000C701B6010E94C715C701B601DF91CF9125
:102F6000FF90EF90DF90CF90BF90AF909F908F90A9
:102F70000C94EA1689288A288B2851F7C23040F72A
:102F8000E3CFFC0101900020E9F73197AF01481B26
:102F9000590BBC0187ED97E00C94B90ACF93DF93EE
:102FA0000E94C117EC0184E991E00E94C1178C0FC7
:102FB0009D1FDF91CF9108950C94C1170E94463553
:102FC0000F931F93CF93DF93EC0188819981009732
:102FD00059F02A813B812617370730F081E0DF91D5
:102FE000CF911F910F9108958B016F5F7F4F0E94CA
:102FF0008934009759F0998388831B830A832C8135
:103000003D81232B59F7FC011082E8CF80E0E7CF08
:10301000EF92FF920F931F93CF93DF93EC017B010D
:103020008A01BA010E94E01781110BC0CE010E94F3
:103030004E16CE01DF91CF911F910F91FF90EF902F
:1030400008951D830C83B701888199810E945B35A7
:10305000F0CFEF92FF920F931F93CF93DF93CDB7F3
:10306000DEB7A1970FB6F894DEBF0FBECDBF7C01CF
:10307000CB01BA01F70111821082138212821582EC
:1030800014828E010F5F1F4F22E044E00E94E82D62
:103090000097C9F0FC0101900020E9F73197AF01DA
:1030A000481B590BBC01C7010E940818A1960FB616
:1030B000F894DEBF0FBECDBFDF91CF911F910F916E
:1030C000FF90EF900895C7010E944E16EFCFEF9248
:1030D000FF920F931F93CF93DF93CDB7DEB729975E
:1030E0000FB6F894DEBF0FBECDBF8C01862FF8015E
:1030F0001182108213821282158214824AE09E018C
:103100002F5F3F4F7901B90190E00E94062EF70131
:1031100001900020E9F73197AF014E195F09B7011F
:10312000C8010E94081829960FB6F894DEBF0FBE9A
:10313000CDBFDF91CF911F910F91FF90EF90089538
:10314000EF92FF920F931F93CF93DF93CDB7DEB72C
:1031500062970FB6F894DEBF0FBECDBF162F88233F
:1031600021F00E94A20C1092690400916D040230BB
:1031700008F03FC100916A04013009F06AC0109262
:10318000E7078BEC97E00E94560682E08093E80701
:1031900060E087ED97E00E943C0C20E030E048ECD6
:1031A00052E460911C0170911D0180911E0190916B
:1031B0001F010E9467306EE187FF6FE087ED97E0A7
:1031C0000E944B0C40911C0150911D0160911E0109
:1031D00070911F01CE0101960E942918CE0101961F
:1031E0000E94E60ACE0101960E94601685E892E0F0
:1031F0000E94560681E08093E80761E087ED97E042
:103200000E944B0C66E087ED97E00E943C0C87E93A
:1032100091E00E94DC1760E787ED97E00E944B0C7D
:1032200011951093E70760E087ED97E00E943C0C52
:1032300081EA91E00E94DC1762960FB6F894DEBF37
:103240000FBECDBFDF91CF911F910F91FF90EF90F7
:103250000895023009F04AC01092E7078BEC97E01E
:103260000E9456060093E80760E087ED97E00E9411
:103270003C0C20E030E048EC52E460911C0170917D
:103280001D0180911E0190911F010E9467306EE127
:1032900087FF6FE087ED97E00E944B0C40911C0187
:1032A00050911D0160911E0170911F01CE01019688
:1032B0000E942918CE0101960E94E60ACE010196CD
:1032C0000E94601685E892E00E94560681E0809395
:1032D000E80761E087ED97E00E944B0C66E087ED20
:1032E00097E00E943C0C84EA91E093CF033009F010
:1032F00047C080916904811135C01092E70785E8C5
:1033000092E00E94560601E00093E80761E087ED35
:1033100097E00E944B0C61E087ED97E00E943C0C27
:1033200083EB91E00E94DC1761E087ED97E00E945B
:103330004B0C63E087ED97E00E943C0C80EC91E041
:103340000E94DC1761E087ED97E00E944B0C66E07D
:1033500087ED97E00E943C0C8EEC91E00E94DC1718
:103360000093690460E087ED97E00E943C0C60E701
:1033700087ED97E00E944B0C11951093E70758CF0B
:10338000043009F059CF809169048111EBCF10927C
:10339000E70785E892E00E94560601E00093E807FF
:1033A00061E087ED97E00E944B0C61E087ED97E0CC
:1033B0000E943C0C83EB91E00E94DC1761E087EDFA
:1033C00097E00E944B0C63E087ED97E00E943C0C75
:1033D0008DED91E00E94DC1761E087ED97E00E949F
:1033E0004B0C66E087ED97E00E943C0C8BEE91E081
:1033F000B5CF0230C1F58091690481111BC085E809
:1034000092E00E9456061092E70711E01093E80739
:1034100060E087ED97E00E943C0C8AEF91E00E940B
:10342000DC1763E087ED97E00E943C0C0093E8070F
:1034300010936904809168046EE1843608F06FE0AF
:1034400087ED97E00E944B0C60916804CE010196D5
:103450000E946718CE0101960E94E60ACE010196ED
:103460000E946016E9CE033009F0E6CE809169042F
:1034700081111CC085E892E00E9456061092E70771
:1034800011E01093E80760E087ED97E00E943C0CA4
:103490008CE092E00E94DC1763E087ED97E00E94E9
:1034A0003C0C82E08093E8071093690468E287EDA2
:1034B00097E00E944B0CE0916704F0E0E35CFE4F64
:1034C0006081CE0107960E9467181E861D86188AA5
:1034D0001F861A8A198A41E050E06BE172E0CE0142
:1034E0000D960E940818EF80F884E114F104D9F1D8
:1034F0000B851C8501151105B1F089899A89080F82
:10350000191FB801CE010D960E94E017882359F1CA
:103510002D853E8589899A89B701820F931F0E9464
:103520005B351A8B098B1A8219821C821B821E82C0
:103530001D826D857E856115710531F049895A8935
:10354000CE0101960E940818CE0101960E94E60A5B
:10355000CE0101960E946016CE010D960E94601663
:10356000CE0107967DCFCE010D960E944E16DBCF81
:1035700085ED8093BC0080913F0490914004A09120
:103580004104B09142040796A11DB11D23E0B695F8
:10359000A795979587952A95D1F72091BC0024FD92
:1035A00003C010923D04089540913F04509140049F
:1035B0006091410470914204452B462B472B69F3DF
:1035C0000097A105B10541F02AE22A95F1F700C064
:1035D0000197A109B109E1CF80913E040C949D0EA1
:1035E00084E0EDE1F2E0DB0101900D928A95E1F7D4
:1035F00084E008951F93CF93DF93EC01162F0E9470
:103600008B31181739F0612FCE01DF91CF911F91C7
:103610000C949331DF91CF911F9108950C948B31CD
:10362000CF92DF92EF92FF92CF9380916A04815004
:10363000823008F03FC0809109048823C1F1609175
:1036400083077091840780918507909186070E9477
:103650006C309B01AC0160E070E68AE697E40E9462
:103660005F326B017C01C0920D01D0920E01E0929D
:103670000F01F09210018AE090E00E940E1BC82F0B
:10368000C701B6010E94D132C617A1F08AE090E0CE
:103690000E94FA1A0E949B1680916E0481110AC042
:1036A000CF91FF90EF90DF90CF900C94E21681E0E5
:1036B0008093FC03CF91FF90EF90DF90CF9008951F
:1036C000CF92DF92EF92FF92CF9380916A04815064
:1036D000823008F03FC0809109048823C1F16091D5
:1036E00083077091840780918507909186070E94D7
:1036F0006C309B01AC0160E070E68AE697E40E94C2
:103700005F326B017C01C0920901D0920A01E09204
:103710000B01F0920C0184E190E00E940E1BC82F77
:10372000C701B6010E94D132C617A1F084E190E032
:103730000E94FA1A0E949B1680916E0481110AC0A1
:10374000CF91FF90EF90DF90CF900C94E21682E043
:103750008093FC03CF91FF90EF90DF90CF9008957E
:10376000CF92DF92EF92FF92CF9380916A048150C3
:10377000823008F03FC0809109048823C1F1609134
:1037800083077091840780918507909186070E9436
:103790006C309B01AC0160E070E68AE697E40E9421
:1037A0005F326B017C01C0920501D0920601E0926C
:1037B0000701F09208018EE190E00E940E1BC82FD5
:1037C000C701B6010E94D132C617A1F08EE190E088
:1037D0000E94FA1A0E949B1680916E0481110AC001
:1037E000CF91FF90EF90DF90CF900C94E21683E0A2
:1037F0008093FC03CF91FF90EF90DF90CF900895DE
:103800001F920F920FB60F9211242F933F938F9315
:103810009F93AF93BF9380910F0490911004A09158
:103820001104B091120430910E0423E0230F2D37C0
:1038300058F50196A11DB11D20930E0480930F042D
:1038400090931004A0931104B09312048091130478
:1038500090911404A0911504B09116040196A11D35
:10386000B11D8093130490931404A0931504B09396
:103870001604BF91AF919F918F913F912F910F901F
:103880000FBE0F901F90189526E8230F0296A11DDA
:10389000B11DD2CF1F920F920FB60F9211242F930A
:1038A0003F934F935F936F937F938F939F93AF93C8
:1038B000BF93CF93EF93FF93C091E1008091E1001C
:1038C000837F8093E100C3FF0FC01092E90081E085
:1038D0008093EB001092EC0082E38093ED00109255
:1038E000DB0288E08093F000C2FF1BC083E00E94EF
:1038F000D8088091D802882341F08091D802815065
:103900008093D802811101C05D9A8091D7028823EB
:1039100041F08091D70281508093D702811101C07C
:10392000289AC4FF23C08091E2008E7E816080933C
:10393000E2008091E1008F7E8093E1008091D902C6
:103940008E7E80618093D902FF91EF91CF91BF91DC
:10395000AF919F918F917F916F915F914F913F9127
:103960002F910F900FBE0F901F901895C0FFECCFB6
:103970008091E2008E7E80618093E2008091E10080
:103980008E7E8093E1008091D9028E7E8160DACFB5
:103990001F920F920FB60F921124CF92DF92EF92E7
:1039A000FF920F931F932F933F934F935F936F93C8
:1039B0007F938F939F93AF93BF93EF93FF93CF9397
:1039C000DF93CDB7DEB76C97DEBFCDBF1092E900B5
:1039D0008091E80083FF25C068E0CE0145960E94F3
:1039E000AC0A82EF8093E8008D8987FF39C09091FF
:1039F000E80090FFFCCF982F907609F034C19E89A3
:103A00004F89588D2F89F88C911131C0803861F51C
:103A10008091DA028093F1001092F1008EEF809392
:103A2000E8006C960FB6F894DEBF0FBECDBFDF91F5
:103A3000CF91FF91EF91BF91AF919F918F917F9126
:103A40006F915F914F913F912F911F910F91FF9037
:103A5000EF90DF90CF900F900FBE0F901F901895B2
:103A60009EEF9093E800C7CF1092F100D5CF913030
:103A700059F48111D3CF4130510581F68091DA029A
:103A80008D7F8093DA02CACF933049F48111C6CF7B
:103A90004130510519F68091DA028260F2CF9530FB
:103AA00041F48091E80080FFFCCF20682093E30080
:103AB000B5CF963009F0A9C00B8D1C8D22E0109275
:103AC000E9001092D5021092D402F2122EC0109288
:103AD000D3021092D2020E94030B1F8299E09983B5
:103AE000FA8291E09E8390EA98879AEF99872091D5
:103AF000D4023091D502275F3F4F3C832B838D83C7
:103B00001092E9001092D5021092D4021093D302C1
:103B10000093D20249E050E0BE016F5F7F4F80E02A
:103B20000E9418090E94030B79CF1093D3020093CF
:103B3000D2020E94EF0ADC0112960D911C91011530
:103B4000110509F451C1D801ED91FC910480F58172
:103B5000E02DBE016B5E7F4FC8010995009709F00B
:103B60003EC1F80100851185EACFF3E0FF120EC0D7
:103B70008F89882309F440C0823061F440E860E115
:103B800083E392E00E94DB22811148CF81E280939F
:103B9000EB0047CF813029F440E86BE087E292E008
:103BA000F1CF833099F70E94EF0ADC011296ED9075
:103BB000FC908E010F5F1F4F6801E114F10479F052
:103BC000D701ED91FC910680F781E02DB801C70186
:103BD0000995080F111DF701E084F184EECFD8019B
:103BE0001C92F60101900020E9F73197BF016C1992
:103BF0007D0940E0C601C6CF61E172E0FB0144915E
:103C000050E080E80E94180909CF973009F4BECF30
:103C1000983021F481E08093F10000CF993009F0D1
:103C2000FDCE837009F0B2CFE1E2F1E081E031E056
:103C300096E32191222371F08093E9003093EB0009
:103C4000DF0111972C912093EC009093ED008F5F92
:103C5000873079F78EE78093EA001092EA008F8927
:103C60008093DB02DBCE8B8D9C8D1092E90010924D
:103C7000D5021092D4029093D3028093D202898D00
:103C8000811192C08E899D89913A49F4813209F05F
:103C90007DCF47E050E064E171E080E0B3CF913246
:103CA00009F074CF833269F48F89988DB0E0A0E079
:103CB0008093010190930201A0930301B09304014A
:103CC000ADCE803269F48091E80082FFFCCF67E0DE
:103CD00084E191E00E94AC0A8BEF8093E8009ECED5
:103CE000823209F09BCE8F8980931B01EEEFFFE7B4
:103CF000859194918B3F9C4D51F1E0E0F8E08091EB
:103D0000140190911501A0911601B0911701803B0B
:103D10009440A105B105F1F480911B0180FD1AC00A
:103D2000EE3F8AE0F80789F587E797E7918380837C
:103D3000809160008093D60288E19BE00FB6F894F2
:103D4000A895809360000FBE9093600067CEEEEF61
:103D5000FAE0D5CF808191818737974709F05ECE11
:103D6000A895809160008861809360008091D60260
:103D700080936000EE3F2AE0F20789F08091FE0A0E
:103D80009091FF0A9183808349CE8081918187370A
:103D9000980751F29093FF0A8093FE0AC5CF1092C4
:103DA000FF0A1092FE0A3ACE0E94EF0ADC01129638
:103DB0000D911C910115110509F4E8CED801ED9182
:103DC000FC910190F081E02DBE016B5E7F4FC80138
:103DD0000995811123CEF80100851185EBCF1816C6
:103DE00019060CF41BCED2CEF1E0FF12BECE65E177
:103DF00072E004CF1F920F920FB60F9211242F93EF
:103E00003F934F935F936F937F938F939F93AF9362
:103E1000BF93EF93FF938FEB94E00E94850BFF918C
:103E2000EF91BF91AF919F918F917F916F915F9132
:103E30004F913F912F910F900FBE0F901F901895AB
:103E40001F920F920FB60F9211242F938F939F936F
:103E5000EF93FF93E091CF04F091D0048081E09143
:103E6000D504F091D60482FD1BC090818091D804C6
:103E70008F5F8F732091D904821741F0E091D804AD
:103E8000F0E0E154FB4F958F8093D804FF91EF91C0
:103E90009F918F912F910F900FBE0F901F901895AB
:103EA0008081F4CF1F920F920FB60F9211242F939F
:103EB0003F934F935F936F937F938F939F93AF93B2
:103EC000BF93EF93FF938091B900887F803609F408
:103ED0004AC0F0F5883209F4A7C018F5803109F41A
:103EE0009BC0B8F4882309F4F9C0883009F494C061
:103EF000FF91EF91BF91AF919F918F917F916F91C2
:103F00005F914F913F912F910F900FBE0F901F9097
:103F10001895883109F488C0803251F780933B04AA
:103F200014C0803409F49DC040F48033B9F3883361
:103F3000F9F680933B0485ECB0C0803509F485C068
:103F4000883509F496C0883499F60E94B81AD0CF03
:103F5000883909F48CC038F5883729F050F4883650
:103F600011F0803729F683E080933D041092C5025A
:103F700057C0883809F47BC0803919F0803809F0BF
:103F8000B7CF8091C502803208F071C0E091C502C0
:103F900081E08E0F8093C5028091BB00F0E0EB556D
:103FA000FD4F80833DC0803B39F0E0F4803A09F456
:103FB00079C0883A09F09CCF84E080933D04109248
:103FC000A4021092A302E091DE02F091DF020995B3
:103FD0008091A30281110FC081E08093A30210920F
:103FE000830209C0803C09F4A6CF883C09F4A3CF22
:103FF000883B09F07DCFE091A40281E08E0F809391
:10400000A402F0E0ED57FD4F80818093BB009091BA
:10401000A4028091A30229C0809118048093BB0060
:1040200085EC8093BC0064CF90913A048091390470
:10403000981758F5E0913A0481E08E0F80933A0486
:10404000F0E0E75EFB4F8081E9CFE0913A0481E048
:104050008E0F80933A048091BB00F0E0E75EFB4F47
:10406000808390913A04809139049817C8F285E8CA
:10407000D8CFE0913A0481E08E0F80933A0480918A
:10408000BB00F0E0E75EFB4F808380913C04811130
:104090005CCF81E08093170484EA8093BC00109287
:1040A0003D0426CF85EC8093BC0010923D048091A6
:1040B000C502803230F4E091C502F0E0EB55FD4FCF
:1040C00010826091C50270E0E091DC02F091DD02A7
:1040D00085EA92E009951092C5020ACF10923B043E
:1040E00034CF1F920F920FB60F9211248F929F928E
:1040F000AF92BF92CF92DF92EF92FF920F931F93F6
:104100002F933F934F935F936F937F938F939F93DF
:10411000AF93BF93CF93EF93FF930E948808609370
:104120005C0270935D0280935E0290935F028091C7
:10413000740590917505029709F07BC1C0908B05BD
:1041400080918A058C1102C010928A0580918A059F
:1041500081112BC18091AE059091AF05019709F0B7
:1041600002C1409186055091870560918805709144
:1041700089058091960590919705A0919805B09139
:104180009905481759076A077B0780F080919605C3
:1041900090919705A0919805B09199050196A11D60
:1041A000B11D84179507A607B70790F520919605CE
:1041B0003091970540919805509199052093860577
:1041C000309387054093880550938905D12CF12CB5
:1041D000E12CC701B6010E9405334B015C018092BE
:1041E000820590928305A0928405B0928505A7016F
:1041F00096010E94153360938A0520918D0530E069
:1042000050E040E0C501B4010E94153360938C0575
:10421000C0909A05D0909B05E0909C05F0909D057C
:104220000E945D078090920590909305A090940560
:10423000B0909505681579058A059B0508F415C1A8
:10424000681979098A099B096093A2057093A305EF
:104250008093A4059093A50580909605909097056E
:10426000A0909805B090990500918605109187055A
:10427000209188053091890580169106A206B30623
:1042800008F4FCC044E0660F771F881F991F4A9509
:10429000D1F7672F782F892F9927C61AD70AE80AEE
:1042A000F90AC701B6010E946C3020E034E244E70D
:1042B00059E40E945F329B01AC0160E070E080E84D
:1042C0009FE30E945F3220E030E040EC51E40E9426
:1042D0005F3220E030E040E752E40E94CD306B01D5
:1042E0007C012091A6053091A7054091A805509129
:1042F000A9050E9467308823B1F120E030E040E852
:104300005FE3C701B6010E94003387FD2CC020E0A7
:1043100030E046E953E4C701B6010E946730181641
:1043200014F1C092A605D092A705E092A805F092DC
:10433000A9052091800530918105032E000C440BC6
:10434000550B60E077E883E993E00E943733CA01B8
:10435000B9010E946E30A70196010E945F320E944F
:10436000D1320E940712E0917A05F0917B056091AD
:104370008605709187058091880590918905309711
:1043800009F009958091860590918705A09188058F
:10439000B09189050196A11DB11D8093860590936A
:1043A0008705A0938805B0938905E0917605F09183
:1043B0007705309749F0609182057091830580916F
:1043C0008405909185050995E0908D0580918C0577
:1043D0008E1102C010928C05C0907805D09079059E
:1043E000C114D10449F0C0918C058091120681114D
:1043F00063C0CC2309F4B2C08091820590918305FB
:10440000A0918405B09185050196A11DB11D8093F1
:10441000820590938305A0938405B09385058091D0
:104420008A058F5F80938A0580918C058F5F8093CA
:104430008C05FF91EF91CF91BF91AF919F918F919B
:104440007F916F915F914F913F912F911F910F91AC
:10445000FF90EF90DF90CF90BF90AF909F908F90A4
:104460000F900FBE0F901F90189580949094A09479
:10447000B094680D791D8A1D9B1DE6CE6C157D05D7
:104480008E059F0508F00DCFA7019601261B370B5F
:10449000480B590BDA01C90124E0880F991FAA1FA4
:1044A000BB1F2A95D1F7892F9A2FAB2FBB27C80E98
:1044B000D91EEA1EFB1EF5CE80908E0590908F05CA
:1044C000A0909005B09091052091130630E050E047
:1044D00040E0C501B4010E9415336C587A4FFB01CE
:1044E000E056FF4FF08080912506811105C0C11173
:1044F00003C081E080932506F7FC4EC08C2F8F19F6
:104500009091240697FF03C0C13009F075CFF09257
:104510002406811171CF80912506882309F46CCF80
:1045200020911306C501B4016F5F7F4F8F4F9F4FDE
:1045300030E050E040E00E9415336C587A4F6056EE
:104540007F4FFB018081809326061F1464F58091C4
:1045500026068F19809326061092250660918E05F7
:1045600070918F058091900590919105F6010995C4
:1045700080918E0590918F05A0919005B091910545
:104580000196A11DB11D80938E0590938F05A09378
:104590009005B093910530CFCE198C2F8F1991E0F3
:1045A00090932506B4CFFF20B9F280912606F80E2D
:1045B000F0922606D1CFEF92FF920F931F93CF93E5
:1045C000DF93F82E192FE62E042F81E0860F880F37
:1045D0000E94EA0883E00E94EA08CF2DD12FEC0E5A
:1045E000FD2EF11CCE15DF05B9F007FF13C0FE014B
:1045F00084910E94EA08182F80E00E94EA08812333
:1046000021968111EFCFDF91CF911F910F91FF90F4
:10461000EF9008958881EDCF81E0F5CFFC01158200
:10462000168284E090E0908787831186148A138A2B
:10463000158A168A82E390E0908F878B88EC90E051
:10464000928F818F8CE291E0948F838F168E158EDE
:10465000178E11A210A213A212A215A214A217A2C1
:1046600016A211A610A613A612A615A614A617A682
:1046700016A611AA10AA13AA12AA8FEF82838091FC
:104680006002909161029183808301969093610210
:104690008093600208950F931F93CF93DF9310923E
:1046A00072041092710488EE93E0A0E0B0E0809371
:1046B000730490937404A0937504B093760428E473
:1046C00031E03093700420936F042FEF3FEF30936D
:1046D0007C0420937B041092C2041092C104809346
:1046E000C3049093C404A093C504B093C6042AE500
:1046F00031E03093C0042093BF042DEC30E03093C0
:10470000CC042093CB042CEC30E03093CE042093E7
:10471000CD0428EC30E03093D0042093CF0429EC72
:1047200030E03093D2042093D1042AEC30E030936F
:10473000D4042093D3042EEC30E03093D60420939D
:10474000D5041092D8041092D9041092DA04109271
:10475000DB0410925F0510925E05809360059093D4
:104760006105A0936205B09363058CE691E0909398
:104770005D0580935C0582E080936C0580936D05F8
:1047800082E795E090936F0580936E051092710516
:10479000109270058EE791E090936905809368050B
:1047A00080E88093720581E8809373050E94EF0A88
:1047B000FC01818190916C05482F490F5527551FA9
:1047C000483051059CF5A281B381109709F528E680
:1047D00035E033832283208120936A0580936B0523
:1047E00080916D05820F808320916E05A22FB0917C
:1047F0006F058A2F821B8917C8F481813D91C82FCC
:10480000D0E0C05EDE4F38838F5F8183F2CFD90165
:1048100018962D913C91199721153105C1F728E67D
:1048200035E019963C932E931897D5CF00E610E00B
:1048300010938105009380051092120680E1809309
:104840001306E4E1F6E0DF011D928A95E9F7109284
:104850002406C1E0C09325061092260680E090E071
:10486000A0EFB2E48093A6059093A705A093A805B6
:10487000B093A9051092AA051092AB051092AC0551
:104880001092AD0510929E0510929F051092A00502
:104890001092A1051092A2051092A3051092A405F2
:1048A0001092A50510927505109274051092AF052F
:1048B0001092AE050E942F05109277051092760592
:1048C00010927B0510927A05109279051092780566
:1048D00010927D0510927C0510927F0510927E0546
:1048E0000E947105109381050093800584E08093F8
:1048F0008B0588E180938D051092DA071092D90715
:104900001092E3071092E4071092E6071092E50771
:104910001092E707C093E8078AE891E09093D807E0
:104920008093D70786E08093D30787E08093D407EE
:1049300088E08093D50789E08093D60761E086E020
:104940000E94210761E08091D4070E94210761E065
:104950008091D5070E94210761E08091D6070E94CF
:1049600021071092BE071092C5071092CC07109233
:10497000CD071092CE071092CF07C093CB07C093FC
:10498000C8071092C90782E08093CA07C093BD0789
:104990008CE090E09093C2078093C1070E9464333B
:1049A0009093C7078093C607009709F4C8C02CE00E
:1049B000FC0111922A95E9F784E090E09093C007FA
:1049C0008093BF078AE090E09093C4078093C30769
:1049D0008091BE07882341F061E08AE00E942107B0
:1049E00060E08AE00E94F306E0EFF9E0E491F0E095
:1049F000EE0FFF1FE852F64F859194919093D107E7
:104A00008093D007E3ECF9E0E491E093D20780EDE6
:104A100097E0A0E0B0E08093660790936707A093CB
:104A20006807B09369078AEF90E0A0E0B0E0809358
:104A30006A0790936B07A0936C07B0936D0783E0B0
:104A400090E090936F0780936E0788E090E09093DA
:104A500071078093700780E090E0A0EEBFE3809341
:104A6000720790937307A0937407B093750780E063
:104A700090E0A0E3B0E48093760790937707A0934B
:104A80007807B093790710927A0710927B071092FB
:104A90007C0710927D0710927E0710927F0710927C
:104AA0008007109281071092820784EF91E0A0E0C6
:104AB000B0E08093830790938407A0938507B09319
:104AC00086070E9488086093870770938807809301
:104AD000890790938A0710928B0710928C07109287
:104AE0008D0710928E071092B8071092B707109298
:104AF000BA071092B90781E08093BB071092BC07F8
:104B000081E397E00E940E238CEF96E00E940E2333
:104B100087EC96E00E940E2382E996E00E940E2325
:104B20008DE596E00E940E2388E296E00E940E2317
:104B300010922706DF91CF911F910F910895109247
:104B4000C2071092C1071092C0071092BF073ACF58
:104B5000CF93DF9300D000D0CDB7DEB7789484B583
:104B6000826084BD84B5816084BD85B5826085BD69
:104B700085B5816085BD80916E00816080936E00F7
:104B800010928100809181008260809381008091E9
:104B9000810081608093810080918000816080939A
:104BA00080008091910082608093910080919100BB
:104BB000816080939100809190008160809390004B
:104BC0008091C10084608093C1008091C1008260A7
:104BD0008093C1008091C10081608093C100809169
:104BE000C30081608093C3008091C0008260809385
:104BF000C0008091C20081608093C20080917A00E1
:104C0000846080937A0080917A00826080937A0039
:104C100080917A00816080937A0080917A00806828
:104C200080937A001092DB021092DA021092D9027D
:104C30008091D70081608093D70080EA8093D8006C
:104C400089B5806189BD89B5826089BD09B400FEDE
:104C5000FDCF61E070E080E090E00E945508809117
:104C6000D8008F7C80618093D8008091E000807FA5
:104C70008093E0008091E1008E7E8093E1008DE0E2
:104C80008093E200559A209A1092FC03E091CF04A1
:104C9000F091D00482E08083E091CB04F091CC04C9
:104CA0001082E091CD04F091CE048FE380831092C6
:104CB000D704E091D304F091D40486E08083E0919E
:104CC000D104F091D204808180618083E091D1048D
:104CD000F091D204808188608083E091D104F091CA
:104CE000D204808180688083E091D104F091D20465
:104CF00080818F7D80838091C3079091C40797FD49
:104D000008C061E00E94210760E08091C3070E9413
:104D1000F30681E08093BE070E94681610E000E071
:104D20004BE35BE360E070E0C8010E9487050F5F22
:104D30001F4F04301105A1F70E94820760E082E155
:104D40000E94210761E084E10E942107109371070E
:104D5000009370071EEF10933307109245071092CF
:104D60004407109243071092650781E397E00E9481
:104D70000011809334078093350787EB98E0909378
:104D800052078093510784E293E190935A078093EE
:104D900059071093FE061092100710920F071092F9
:104DA0000E07109230078CEF96E00E94001180935E
:104DB000FF06809300078AEB98E090931D0780938D
:104DC0001C0784EE94E190932507809324071093A9
:104DD000C9061092DB061092DA061092D9061092DC
:104DE000FB0687EC96E00E9400118093CA06809330
:104DF000CB068DEB98E09093E8068093E70683EC72
:104E000096E19093F0068093EF061093940610922B
:104E1000A6061092A5061092A4061092C60682E974
:104E200096E00E940011809395068093960680EC90
:104E300098E09093B3068093B20680E19BE1909353
:104E4000BB068093BA0610935F061092710610920B
:104E5000700610926F06109291068DE596E00E9402
:104E60000011809360068093610687EC98E0909330
:104E70007E0680937D0680E69BE190938606809374
:104E8000850610932A0610923C0610923B0610925B
:104E90003A0610925C0688E296E00E940011809328
:104EA0002B0680932C068EEC98E090934906809315
:104EB000480680EB9BE19093510680935006109238
:104EC000E1021092E00210924404109266040E94E3
:104ED0007F0E86ED98E09093DF028093DE0287EDEF
:104EE00098E09093DD028093DC028CE08093B80020
:104EF0001092EA078CE38093E9071092DB07109287
:104F0000DC07E4E4F2E0C590D490E6E4F2E0F4904B
:104F1000E7E4F2E0E491E093DD07E8E4F2E0E49115
:104F2000E093DE07E9E4F2E0E491E093DF0710E0CC
:104F300000E00F1558F4F601E00FF11F649187EDC2
:104F400097E00E94340C0F5F1F4FF3CF0E94A20C1A
:104F50008AE090E00E940E1B8F3F09F499C0682FF1
:104F600070E090E080E00E946C3060930D017093DF
:104F70000E0180930F019093100184E190E00E9454
:104F80000E1B8F3F71F0682F70E090E080E00E9470
:104F90006C306093090170930A0180930B01909328
:104FA0000C018EE190E00E940E1B8F3F71F0682F84
:104FB00070E090E080E00E946C3060930501709397
:104FC0000601809307019093080188E290E00E9417
:104FD0000E1B8F3F09F481E080936A0482E390E026
:104FE0000E940E1B8F3F09F481E0809368048CE3DC
:104FF00090E00E940E1B8F3F09F480E080936704CD
:105000000E94F9148091FF03882309F44EC011E037
:1050100010930D040E9471050E949B160E94A20C21
:1050200085E892E00E94560682E08093E80782E2DB
:1050300092E00E94CE171093E80784E991E00E9465
:10504000C11784E991E00E94C1178BE292E00E94AF
:10505000CE1765E0C62E70E0272E70E0372E43E0B5
:10506000F42E52E0E52E80910D04882309F4CDC082
:1050700064E670E080E090E00E945508211431045D
:1050800091F30E94710B882351F30E940000E7CF37
:1050900080E090E0A0EAB2E480930D0190930E01CD
:1050A000A0930F01B093100168CF85E892E00E94B1
:1050B00056060E94A20C82E08093E80782E292E00A
:1050C0000E94CE1711E01093E80789E392E00E9456
:1050D000DC1784E492E00E94CE1784E991E00E94FC
:1050E000C11789E492E00E94CE1760ED77E080E07E
:1050F00090E00E9455080E94A20C109269040E9440
:10510000B016F894109280001092810010928500E1
:105110001092840081EC92EA909389008093880039
:1051200080918100886080938100809181008260FD
:105130008093810080916F00826080936F007894EB
:105140006091A6057091A7058091A8059091A90589
:105150000E94B2120E94710588E190E0909381054F
:105160008093800510938B0586E080938D058DE5F7
:1051700097E1909377058093760585ED98E090937D
:105180007D0580937C0588EF94E190937F05809363
:105190007E0560911C0170911D0180911E0190910E
:1051A0001F010E94FF120E94CF1661E085E10E945C
:1051B000210760E085E10E94F30682E090E00E9412
:1051C00064339093E3028093E202FC011082118227
:1051D00061E083E10E94210761E085E00E942107F0
:1051E00061E084E00E94210710E000E061E0C80176
:1051F0000E9465150F5F1F4F00311105B9F760E080
:105200008FE090E00E94651524CF0E94F9140E945F
:10521000880810927A0780907B0790907C07A09076
:105220007D07B0907E0780927F0790928007A092C2
:105230008107B09282078090870790908807A0909E
:105240008907B0908A07681979098A099B096093D0
:105250007B0770937C0780937D0790937E0781E3A3
:1052600097E00E940C118CEF96E00E940C1187ECE5
:1052700096E00E940C1182E996E00E940C118DE5E7
:1052800096E00E940C1188E296E00E940C11809139
:105290000904882309F180916D049091FE039923FC
:1052A00009F449C1811118C081E080936D04809197
:1052B0006A04823009F426C1813009F436C1833092
:1052C00009F436C1E3E0F0E0843009F41DC10E9426
:1052D000CF1681E08093270680916D04882369F1C1
:1052E00090910904911129C09091FE03911125C05C
:1052F0009091FF03911121C0823009F02FC182E308
:1053000090E00E940E1B8F3F09F481E060916804D9
:10531000681771F082E390E00E94FA1A0E949B16CF
:1053200064EF71E080E090E00E9455080E94B016A2
:1053300010926D0481E08093270680916A04DD2439
:10534000DA94D80EF1E0FD1508F43CC160918307B2
:105350007091840780918507909186070E946C3038
:105360009B01AC0160E070E68AE697E40E945F3240
:105370002B013C0120911C0130911D0140911E0127
:1053800050911F010E94F2314B015C0120E030E09E
:10539000A9010E94003318160CF0F2C020E030E0A2
:1053A00040E85FE3C501B4010E94003387FFF3C00A
:1053B00090910A04809112012091EC022111F0C316
:1053C000992339F020910B042111F0C3815080936F
:1053D000120180911201209111018213E8C2909371
:1053E000EC028091FC03882349F190916E049111A5
:1053F0006FC3813009F055C380900D0190900E016C
:10540000A0900F01B0901001C501B4010E94D132EB
:1054100070E090E080E00E946C3060931C0170931B
:105420001D0180931E0190931F01C501B4010E94CC
:10543000FF1281E0809327061092FC03D090FB03BB
:1054400080911301D81609F44DC08090E802909025
:10545000E902A090EA02B090EB0220E030E0A9015E
:10546000C501B4010E9467308823D1F10E94F00584
:10547000A50194010E94F23120E030E0A9010E94D0
:10548000003318160CF067C30E94F005A5019401C3
:105490000E94F23120E030E040E450E40E9400330A
:1054A00018160CF066C380916E04882309F461C35A
:1054B0000E94F0054B015C0120E030E040E85DE334
:1054C0006091E4027091E5028091E6029091E7021A
:1054D0000E94CD30A50194010E94F3310E94FF1279
:1054E000D092130180912706882309F4C7CD81301B
:1054F00009F04CC31092690460E00E94A018109259
:105500002706BCCDF0E0E0E03196E370FF27E75CD2
:10551000FE4F608160936A041092FA031092F903BF
:1055200088E290E00E94FA1AD2CEE1E0F0E0ECCFFF
:10553000E2E0F0E0E9CF9091FF03992329F0811197
:10554000CBCEE0926D04C5CE9091FD03992309F472
:10555000C3CE8111C1CEF0926D04BBCE833009F071
:10556000E7CE8CE390E00E940E1B8F3F09F480E0B1
:1055700060916704681709F4DBCE8CE390E0CCCE31
:1055800020E030E040E85FEBC501B4010E946730E5
:1055900018160CF40DCFC301B2010E94D13270E095
:1055A00090E080E00E946C3060931C0170931D01BC
:1055B00080931E0190931F010E94B21281E080939C
:1055C0002706F6CE833009F083C06091830770917F
:1055D000840780918507909186070E946C309B011B
:1055E000AC0160E070E68AE697E40E945F322B012E
:1055F0003C0120911C0130911D0140911E015091F0
:105600001F010E94F2314B015C0120E030E0A90152
:105610000E9400331816D4F520E030E040E85FE344
:10562000C501B4010E94003387FF3AC080916D0428
:105630008111BECE8FEB94E00E94650B18161906FF
:105640000CF0B6CE8FEB94E00E94430B182F8093A2
:10565000F6038D7F883F19F01C3F09F0A9CE6FE05B
:10566000712F80E090E00E94EE090E94E208612F15
:105670008FEB94E00E94A60B1A3F21F581E0809306
:105680006E041092FA031092F90392CE20E030E0FB
:1056900040E85FEBC501B4010E946730181634F290
:1056A000C301B2010E94D13270E090E080E00E941C
:1056B0006C3060931C0170931D0180931E019093C8
:1056C0001F01B4CF1C3F09F032C110926E0470CE9E
:1056D000843009F06DCE60918307709184078091CA
:1056E0008507909186070E946C309B01AC0160E0B9
:1056F00070E68AE697E40E945F322B013C0120911C
:105700001C0130911D0140911E0150911F010E940A
:10571000F2314B015C0120E030E0A9010E9400332E
:1057200018160CF083C020E030E040E85FE3C501CC
:10573000B4010E94003387FF84C080916D04811101
:1057400037CE8091ED039091EE03A091EF03B091DD
:10575000F0034091F1035091F2036091F3037091D3
:10576000F403841B950BA60BB70B8F739927AA27FD
:10577000BB27892B8A2B8B2B09F475C08091F103F1
:105780009091F203A091F303B091F403880F991F55
:10579000880F991FFC01E351FD4F80811181228107
:1057A00093814090ED035090EE036090EF03709072
:1057B000F0034091F1035091F2036091F303709173
:1057C000F4034416550666067706C1F04091F103CE
:1057D0005091F2036091F3037091F4034F5F5F4FB8
:1057E0006F4F7F4F4F735527662777274093F103FD
:1057F0005093F2036093F3037093F4038093F503E3
:105800001093F6032093F7039093F803882309F489
:10581000CFCD8F708F3009F0CBCD812F8D7F883F1A
:1058200009F425CF1C3F09F0C3CD21CF20E030E0A3
:1058300040E85FEBC501B4010E94673018160CF414
:105840007CCFC301B2010E94D13270E090E080E0D1
:105850000E946C3060931C0170931D0180931E01A7
:1058600090931F016ACF80916B050E94930A90E08C
:1058700020E010E0882309F494CF8090ED0390900D
:10588000EE03A090EF03B090F0038FEF881A980A10
:10589000A80AB80A9FE389229924AA24BB248091EC
:1058A000F1039091F203A091F303B091F4038815F2
:1058B0009905AA05BB0509F461CF80916B050E948B
:1058C000930A44E050E0BE016F5F7F4F80916B050B
:1058D0000E941F0A04970CF451CF8091ED03909120
:1058E000EE03A091EF03B091F003880F991F880F8A
:1058F000991F83519D4F49815A816B817C81FC01A5
:1059000040835183628373838092ED039092EE0310
:10591000A092EF03B092F003FFEF8F1A9F0AAF0A35
:10592000BF0A8FE388229924AA24BB24B8CF183F4A
:1059300009F03ECD8091F9039091FA03009749F068
:105940008831910531F08033910519F08834910543
:1059500011F4E09227068830910549F080329105D4
:1059600031F08833910519F08035910511F4F092EA
:1059700027068F359105ACF01092FA031092F903C7
:105980008090F9039090FA03092C000CAA08BB0838
:10599000C501B4010E94C715C501B4010E94EA16F1
:1059A00007CD01969093FA038093F903E9CF70E055
:1059B00060E080FD06C06FEF7FEF821710F061E0BE
:1059C00070E0809311019093EC026115710509F468
:1059D00008CD80916D0481113AC091E09D1508F4C5
:1059E00000CD80901C0190901D01A0901E01B090F0
:1059F0001F0180910904811120C0072E000C880B23
:105A0000990B0E946E30A50194010E94F3316093BE
:105A10001C0170931D0180931E0190931F0181E072
:105A20008093270660911C0170911D0180911E01D9
:105A300090911F010E94FF12D4CCC69EC001C79E48
:105A4000900D1124BC01990F880B990BDACF82308D
:105A5000B1F4809168046F3F760751F4823008F406
:105A6000C0CC81508093680481E080932706B9CC34
:105A7000883108F0B6CC680F60936804F5CF8330A6
:105A800009F0AFCC809167046F3F7F4F31F48823DA
:105A900059F3815080936704E7CF863028F78F5FF2
:105AA000F9CF823049F48090090190900A01A090CA
:105AB0000B01B0900C01A8CC833009F0BACC8090D7
:105AC000050190900601A0900701B09008019CCCC0
:105AD000813059F580910D0190910E01A0910F0137
